:020000040800F2
:1000000028080020CD0100082F0B00086B0A00080B
:100010002D0B000815020008010D0008000000006B
:10002000000000000000000000000000510B00086C
:1000300017020008000000009D010008530B000893
:10004000E7010008E7010008E7010008E7010008F0
:10005000E7010008E7010008E7010008E7010008E0
:10006000E7010008E7010008E7010008E7010008D0
:10007000E7010008E7010008E7010008E7010008C0
:10008000E7010008E7010008E7010008E7010008B0
:10009000E7010008E7010008E7010008E7010008A0
:1000A000E7010008E7010008E7010008E701000890
:1000B000E7010008E7010008E7010008E701000880
:1000C000E7010008E7010008E7010008E701000870
:1000D000E7010008E7010008E7010008E701000860
:1000E000E7010008E7010008E7010008E701000850
:1000F000E7010008E7010008E7010008E701000840
:10010000E7010008E7010008E7010008E70100082F
:10011000E7010008E7010008E7010008E70100081F
:10012000E7010008E7010008E7010008E70100080F
:10013000E7010008E7010008E7010008E7010008FF
:10014000E7010008E7010008E7010008E7010008EF
:10015000E7010008E7010008E7010008E7010008DF
:10016000E7010008E7010008E7010008E7010008CF
:10017000E7010008E7010008E701000800000000AF
:10018000E7010008E7010008DFF80CD000F030F8C4
:1001900000480047210D000828080020EFF30980DF
:1001A00020B120E9F00F07490968086005480649B1
:1001B0000A6802601068B0E8F00F80F309884EF01A
:1001C000040E7047180000201C00002006488047DD
:1001D00006480047FEE7FEE7FEE7FEE7FEE7FEE72C
:1001E000FEE7FEE7FEE7FEE7010C000889010008D4
:1001F000064C074D06E0E06840F0010394E8070074
:1002000098471034AC42F6D3FFF7C2FFC80D000880
:10021000E80D0008FEE770472DE9F84FDFF88C91F4
:10022000002209F1040A0AF1040B4FF00F080BF148
:10023000040E01260B6896403340B34271D14C68DE
:10024000022C01D0122C11D1D40800EB84073D6A96
:100250005407E40E08FA04FC25EA0C05D1F810C096
:100260000CFA04FC4CEA050CC7F820C007685400DF
:10027000032591F804C0A5400CF0030CAF430CFA21
:1002800004FC4CEA070CC0F800C04F68012F05D0F1
:10029000022F03D0112F01D0122F11D18768D1F86E
:1002A0000CC0AF430CFA04FC4CEA070CC0F808C0C1
:1002B0004768B7430E79C6F3001696403E43466042
:1002C000C668AE438D68A5403543C5604C68E40000
:1002D00065D5374C256845F480452560246822F0B3
:1002E000030504F480440094324C2E19D6F80878A3
:1002F0009407250F08FA05F4A7432F4CA04201D11B
:10030000002424E02D4CA04201D101241FE02C4CFC
:10031000A04201D102241AE02A4CA04202D10324B7
:1003200015E03CE0284CA04201D104240FE0274C0A
:10033000A04201D105240AE0254CA04201D10624A7
:1003400005E0244CA04201D1072400E00824AC4081
:100350003C43C6F80848D9F800404D464E689C43D7
:10036000F60300D51C432C60DAF8004055464E6871
:100370009C43B60300D51C432C60DBF800405D466F
:100380004E689C43F60200D51C432C60DEF800400A
:1003900075464E689C43B60200D51C432C60521C27
:1003A000102AFFF446AFBDE8F88F0000003C014082
:1003B0004438024000300140000002400004024086
:1003C00000080240000C02400010024000140240ED
:1003D00000180240001C02400AB181617047090404
:1003E000FBE7000001480068704700002000002083
:1003F00002480168491C016070470000200000208D
:100400000B4810B5016841F400710160016841F4C6
:1004100080610160016841F480710160032000F097
:1004200069F8002000F006F800F018F8002010BD70
:10043000003C024010B5044607484FF47A7100684A
:10044000B0FBF1F000F0F9FA00222146501E00F056
:1004500031F8002010BD00002400002010B503205A
:1004600000F048F8002211466FF00B0000F022F86F
:10047000002211466FF00A0000F01CF8002211461D
:100480006FF0090000F016F800221146501F00F02E
:1004900011F800221146101F00F00CF8002211463E
:1004A000901E00F007F80022BDE810401146501ED3
:1004B000AFF30080F0B40E4B1B68C3F30223C3F10B
:1004C0000704042C00D904241D1D072D01D200238C
:1004D00000E0DB1E012606FA04F56D1E0D409D406E
:1004E0009E40761E164045EA0601F0BC00F020BB97
:1004F0000CED00E0064A00F0070110684FF6FF031C
:10050000184040EA0120034908431060704700008A
:100510000CED00E00000FA052DE9F047DFF85C91F2
:1005200004460E46D9F8000000F00F01F0B28046F4
:10053000B14207D289F80000D9F8000000F00F009E
:10054000B04271D120784E4F800705D53868A16838
:1005500020F0F000084338602078C00756D04849A2
:100560006068083901281AD002281BD0032819D046
:1005700009688907002957DA396821F00301014326
:100580003960FFF72FFF0546606841F28831012886
:1005900011D002281CD003288A4625D032E00968F1
:1005A0008903E7E709688901E4E7FFF71BFF411BBF
:1005B000514501D923E08A463868C0F381000128FB
:1005C000F3D123E0FFF70EFF411B514501D916E09F
:1005D0008A463868C0F381000228F3D116E0FFF79D
:1005E00001FF411B51450AD83868C0F38100032838
:1005F000F5D10BE0FFF7F6FE411B514502D9032070
:10060000BDE8F087386810F00C0FF3D1D9F800106E
:10061000484601F00F01B14208D980F80080006817
:1006200000F00F00B04201D00120E9E72078400738
:1006300005D53868E16820F4E05008433860207838
:10064000000706D53868216920F4604040EAC100FF
:10065000386000F021F83968F02292FAA2F201F035
:10066000F001B2FA82F2D140064A515CC840064914
:1006700008600020FFF7DEFE0020C1E7003C0240DA
:1006800008380240B80D0008240000200148006826
:10069000704700002400002030B51948006810F0B1
:1006A0000C01184812D0184C04290ED008290DD17D
:1006B000134A121F1168136801F03F015D0247F6EB
:1006C000C07304D5B4FBF1F003E0204630BDB0FBAD
:1006D000F1F01168194093FAA3F3B3FA83F3D94008
:1006E000484311684FF4403292FAA2F201F44031CB
:1006F000B2FA82F2D140491C4900B0FBF1F030BDA2
:10070000083802400024F40040787D012DE9F84FBC
:1007100004460078DFF8F4A2BD4DC00748D0DAF8EF
:1007200000105046C1F38101012908D00068C0F3D0
:10073000810002280AD1281D0068400206D52868D9
:10074000800335D56068002870D031E06068B0F56E
:10075000803F10D0B0F5A02F286810D020F4803052
:100760002860286820F4802028606068A0B1FFF726
:1007700039FE06460CE0286840F48030F4E740F487
:1007800080202860F7E7FFF72DFE801B642873D8D0
:1007900028688003F7D50BE0FFF724FE064604E047
:1007A000FFF720FE801B6428F1D828688003F7D467
:1007B0002078DFF8608280074FF0010B4FF00009CE
:1007C00043D5DAF80010504611F00C0F4FF0F8073F
:1007D00009D00068C0F3810002280BD18B48001FAC
:1007E0000068400206D42868800713D5E068012815
:1007F0001CD10FE0E068D0B1C8F800B0FFF7F2FDFF
:10080000064604E0FFF7EEFD801B0228BFD82868EB
:100810008007F7D5286897FAA7F22169B2FA82F221
:1008200020F0F8009140084328600EE0EBE0C8F8A3
:100830000090FFF7D7FD064604E0FFF7D3FD801BCD
:10084000022819D828688007F7D42078000722D515
:100850006E4F714861696C3779B1C0F800B0FFF72D
:10086000C1FD064604E0FFF7BDFD801B022803D84A
:1008700038688007F7D50EE079E0C0F80090FFF700
:10088000B1FD064604E0FFF7ADFD801B02286ED8DF
:1008900038688007F7D42078400750D55B48383057
:1008A000016841F08051016000685C4F00F08050A9
:1008B0000090386840F480703860FFF793FD06467A
:1008C00004E0FFF78FFD801B022850D83868C00570
:1008D000F7D54E4FA068683701280FD00528386833
:1008E00010D020F001003860386820F00400386033
:1008F000A068B0B1FFF776FD06460EE0386840F01C
:100900000100F4E740F004003860F7E7FFF76AFD04
:10091000811B41F2883081426DD838688007F5D557
:100920000DE0FFF75FFD064606E0FFF75BFD811B6C
:1009300041F2883081425ED838688007F5D4A069DA
:10094000F0B3DAF80010C1F3810102295BD002286C
:10095000484605D0C8F86000FFF744FD04464DE066
:100960004746C8F86000FFF73DFD064605E042E057
:10097000FFF738FD801B02283DD828688001F7D496
:10098000D4E90701084347F6C07292FAA2F2616AFD
:10099000B2FA82F29140A26A4FF0FF3303EB5202A7
:1009A0004FF4403393FAA3F3B3FA83F39A4011431D
:1009B0004FF0706292FAA2F20843B2FA82F200E0BB
:1009C0001FE0E16A914008431049091F0860C7F819
:1009D00060B0FFF707FD044604E0FFF703FD001BCE
:1009E000022808D828688001F7D50AE0FFF7FAFC4A
:1009F000001B022802D90320BDE8F88F2868800177
:100A0000F4D40020F8E70120F6E70000083802409F
:100A10000038024000004742800E4742007000400C
:100A20004FF0E0210428086903D020F00400086199
:100A3000704740F00400FAE7704710B5401EB0F16F
:100A4000807F01D3012010BD4FF0E02460610F21B1
:100A5000601700F06DF80020A061072020610020E1
:100A600010BD10B5FFF7E8FF10BDFEE7F0B52A484E
:100A700087B00024016841F080010160016801F045
:100A800080010591016841F001010160016801F0F8
:100A900001010591016841F002010160016801F066
:100AA00002010591016841F008010160016801F04F
:100AB00008010591016841F0040101600068174FC9
:100AC00000F004004FF4704605900022314638468D
:100AD000FFF782FC512001258DE83100694610485E
:100AE000FFF79AFB48F202008DE8310069460D4895
:100AF000FFF792FB0220CDE90204CDE900656946CB
:100B00003846FFF789FBC0208DE83100694606486A
:100B1000FFF782FB07B0F0BD30380240000C024006
:100B2000000002400004024000080240FEE7704757
:100B30000907090E002806DA00F00F0000F1E02096
:100B400080F8141D704700F1E02080F80014704711
:100B5000704710B5FFF74CFCBDE81040FFF781BFB0
:100B600030B5254893B00025016841F080510160FF
:100B7000006800F0805011902048016841F48041E5
:100B800001600068022400F480401190012003906D
:100B900010200490009406940820CDE90750A82066
:100BA000CDE9090404200B906846FFF7AFFD00B1C2
:100BB000FEE70CA90F2081E831004FF4A0500F9000
:100BC0004FF48050109005210CA8FFF7A5FC00B150
:100BD000FEE7FFF75BFD4FF47A71B0FBF1F0FFF732
:100BE0002CFF0420FFF71CFF00221146501EFFF7C8
:100BF00061FC13B030BD000040380240007000407E
:100C00001048016841F4700101600F48016841F02B
:100C1000010101600C4A00210832116002680B4B8F
:100C20001A400260031D0A4A1A60026822F48022F8
:100C3000026005480C30016002495806803908609E
:100C40007047000088ED00E000380240FFFFF6FE2C
:100C50001030002430B51D1F4FF080742C602C1F05
:100C60002160A3F10C0114240C60091F12240C60F4
:100C7000091F03240C60091F02240C60091F0124B2
:100C80000C60091F0A60091F11220A60091F102247
:100C90000A60091F09220A60091F08220A60091F49
:100CA00007220A60091F06220A60091F05220A603E
:100CB000042143F8401D036030BD002080F3098803
:100CC000AFF300800349FF200870C80601491E39B0
:100CD0000860704722ED00E0064A074910680B687B
:100CE000984200D15068486004494FF08050086035
:100CF00070470000100000201800002004ED00E004
:100D0000FEE702E008C8121F08C1002AFAD17047A6
:100D10007047002001E001C1121F002AFBD170477B
:100D2000FFF76EFBFFF71CFFFFF7A0FE0C4B4FF029
:100D300011320C490C48FFF78DFF0B480B4B4FF05D
:100D400022320B49001DFFF785FF074800F108011B
:100D5000021DC1E9000207490860FFF7AEFFFEE788
:100D600024020020790D000808000020240400203F
:100D7000990D00081C0000200025064C0126642067
:100D80002560401EFDD164202660401EFDD1FFF786
:100D9000A3FFF4E7000000200025064C0126642094
:100DA0006560401EFDD164206660401EFDD1FFF7E6
:100DB00093FFF4E70000002000000000010203049C
:100DC0000102030406070809E80D000800000020DE
:100DD00028000000020D0008100E00082800002066
:100DE00000080000120D00080000000000000000D4
:100DF00000000000000000000000000000000000F3
:100E00000000000000000000000000000024F400CA
:040000050800018965
:00000001FF
