:020000040800F2
:100000004004002049010008BD14000891140008B4
:10001000B9140008B50700080D160008000000001C
:1000200049504200010100000000000000000000F3
:1000300025150008D908000800000000F914000880
:100040002715000863010008630100086301000828
:1000500063010008630100086301000863010008F0
:1000600063010008630100086301000863010008E0
:1000700063010008630100086301000863010008D0
:1000800063010008630100086301000863010008C0
:1000900063010008630100086301000863010008B0
:1000A00063010008630100086301000863010008A0
:1000B0006301000863010008630100086301000890
:1000C0006301000863010008630100086301000880
:1000D0006301000863010008630100086301000870
:1000E0006301000863010008630100086301000860
:1000F0006301000863010008630100086301000850
:10010000630100086301000863010008630100083F
:10011000630100086301000863010008630100082F
:10012000630100086301000863010008630100081F
:1001300063010008DFF80CD000F05AF800480047CF
:10014000771600084004002006488047064800470C
:10015000FEE7FEE7FEE7FEE7FEE7FEE7FEE7FEE777
:10016000FEE7FEE7B515000835010008202A04DB8C
:10017000203A21FA02F00021704721FA02F3D04020
:10018000C2F12002914008431946704740EA01033A
:100190009B0703D009E008C9121F08C0042AFAD23D
:1001A00003E011F8013B00F8013B521EF9D2704701
:1001B000D2B201E000F8012B491EFBD270470022A9
:1001C000F6E710B513460A4604461946FFF7F0FF56
:1001D000204610BD30B504460020034600E05B1CFD
:1001E000934203D2E05CCD5C401BF8D030BD0000F0
:1001F000064C074D06E0E06840F0010394E8070074
:1002000098471034AC42F6D3FFF798FFA4180008C3
:10021000C418000870B503460024104600BF09E06A
:100220001D784540EDB2054E36F8155085EA202080
:100230005B1C641C8C42F3D370BD00008C1600085C
:100240002DE9F04104460D4600270026012D04D17A
:100250008E0306F10060206011E0022D0CD100F049
:10026000B7F90746A7F11000102101EB50008602F4
:1002700006F10060206002E002A001F0CBF9BDE8C9
:10028000F08100005B424F4F545F436163756C61C6
:1002900074655F41707042616B5D617070747979F3
:1002A0006520697320756E646566696E650D0A0068
:1002B0002DE9FC4700240025002600200190009035
:1002C00000278046012101A8FFF7BAFF02216846F6
:1002D000FFF7B6FF019FDDF80080012000F076F8FF
:1002E0000446022000F072F805461CB115B1012049
:1002F000334908601CB115B90320314908601CB9A5
:1003000015B102202E4908601CB915B904202C49EA
:1003100008602B480068012806D002282DD0032849
:1003200022D0042848D12AE04FF00009012101A879
:10033000FFF786FF019800F500692249D9F800000F
:100340000840B0F1005F0BD11F48814508D199F8F2
:10035000000000F0030018B900F0C8F900F05EF9E1
:100360004FF0FF3000F057F900F06EF8064616B176
:10037000304600F050F900F051F900F04FF9B88A1A
:10038000B8F8141088420ED1032208F10E0107F1CB
:100390000E00FFF71FFF30B9788AB8F812108842B4
:1003A00001D100F03BF900F04FF8064616B1304697
:1003B00000F031F900F032F900BF00BFBDE8FC8762
:1003C000080000200000FE2F004800082DE9F84337
:1003D00005464FF0000900200090002600278046C7
:1003E000002429466846FFF72BFF009C268B2088B7
:1003F00044F25561884202D0B81EBDE8F88300225D
:1004000018212046FFF706FF0746BE4202D06FF0D4
:100410000200F2E7608A4FF6FF71884202D16FF066
:100420000300EAE7009800F500680649D8F80000E4
:100430000840B0F1005F02D06FF00400DDE700205B
:10044000DBE700000000FE2F2DE9F04F8BB000200D
:100450000A900990002781468246002480460026A3
:100460000890834600251C2101A8FFF7A8FE012162
:100470000AA8FFF7E5FE022109A8FFF7E1FE099DA2
:10048000B5F81490E88A81000022099800F5006010
:10049000FFF7C0FE8246CA450BD04C4800680228D0
:1004A00003D14A48006804287DD06FF0020000F0B4
:1004B000B2F8E98A0122C2EB8100C11700EB515169
:1004C000C9124F1C39460A9800F076F9064626B143
:1004D0006FF005000BB0BDE8F08F012433E0099AFE
:1004E00002EBC4210A9A02EBC4204FF4006200F030
:1004F000A7F9099A02EBC4210A9A02EBC4204FF42F
:100500000062FFF767FE0646E6B1099A02EBC421D6
:100510000A9A02EBC4204FF4006200F091F9099AA4
:1005200002EBC4210A9A02EBC4204FF40062FFF7E9
:1005300051FE064636B10121099800F03DF96FF0F1
:10054000060602E0641CBC42C9D300BF688A08905A
:100550004FF6FF7068821A2229460A9800F070F957
:100560001A2228460A99FFF735FE06468EB11A224E
:1005700029460A9800F064F91A2228460A99FFF7DA
:1005800029FE06462EB10121099800F015F96FF0F9
:10059000060605F11200A0EB05080A9901EB080018
:1005A000022208A900E00EE000F04AF90A9830F8AB
:1005B00008B0BDF82000584505D00121099800F089
:1005C000FBF86FF00606304684E7000008000020C4
:1005D00005480068054908600846008880B2086040
:1005E0000846006870470000E0F7FF1F0400002085
:1005F00008B500200090002401216846FFF720FE86
:10060000009800F500646568206880F3088800BFE2
:10061000A84700BFFEE700BFFEE7000008B50024C2
:100620000026002700200090804600250121684612
:10063000FFF706FE009800F50064009DEE8AB10009
:1006400000222046FFF7E6FD8046A88A404518D0E4
:1006500022480068042814D1FFF7F6FE074687B148
:10066000002231462046FFF7D5FD8046A88A404546
:1006700007D00121009800F09FF86FF00200FFF70B
:10068000CAFF174920680840B0F1005F06D115483D
:10069000844203D1207800F00300E0B10F480068E5
:1006A000042814D1FFF7D0FE0D4920680840B0F1AE
:1006B000005F08D10C482040B0F1006F03D12078D2
:1006C00000F0030038B16FF00400FFF7A4FF4FF013
:1006D000FF30FFF7A0FF72B6FFF78AFF0800002087
:1006E0000000FE2F004800080000FF0800B58FB092
:1006F00000200E901C2107A8FFF761FD1C21684611
:10070000FFF75DFD01210EA8FFF79AFD44F2556049
:10071000ADF800000120ADF802000C208DF80400B7
:10072000234800680188ADF80E1080788DF810001D
:100730001F4800688088ADF81200FFF749FF1038A5
:1007400040084FF6FF7101EA0020ADF816001A20AC
:10075000ADF80C00BDF81600810000220E9800F5DF
:100760000060FFF757FDADF81400BDF80C00811EC6
:1007700000226846FFF74EFDADF8180001210E98E3
:1007800000F01AF81A2269460E9800F059F81A2259
:1007900007A80E99FFF7FAFC1A22694607A8FFF787
:1007A00019FD18B14FF0FF300FB000BD0020FBE77E
:1007B0000000002000BFFEE72DE9F04786B00546A7
:1007C0000C460020059000260027A5F1006A4FEA9C
:1007D000DA284FF0006000EBC829E702B5F1006F9E
:1007E00004D305EBC4201549884204D34FF0FF30F1
:1007F00006B0BDE8F087012002900494CDF80C907B
:100800000020019000F0D6F905A901A800F018F920
:1008100000F06EF9002606E059F80600B0F1FF3F3F
:1008200000D002E0361DBE42F6D300BFBE4202D267
:100830006FF00100DCE70020DAE7000000000808A4
:100840002DE9F04706460D4617460024A146A0466E
:1008500015B9601EBDE8F087B6F1006F03D3F0193B
:100860001C49884202D36FF00100F3E7022F1ED922
:10087000002419E0E01C285C0106A01C285C41EA69
:100880000041601C285C41EA0020295D40EA010823
:1008900000F090F9311942460023022000F032F9AD
:1008A000814600F025F9241DBC42E3D30FE0295D09
:1008B000601C285C41EA002800F07CF931194246AE
:1008C0000023012000F01EF9814600F011F948468E
:1008D000C0E7000000000808704700000021074A38
:1008E000D1610749096941F00401054A11611146C6
:1008F000096941F0400111617047000020000020AB
:10090000002002400021074AD1610749096941F0EE
:100910000201054A116111464861096941F040012F
:100920001161704720000020002002400022054B8A
:10093000DA61054A126942F00102034B1A61018033
:1009400070470000200000200020024000201E49C7
:10095000C96801F0100139B11C49C96941F00201AF
:100960001A4AD16140F010001749C96801F004012A
:1009700039B11649C96941F00101144AD16140F009
:1009800004001149C96901F0010169B10F49C96940
:1009900041F004010D4AD16100BF0B49C96921F042
:1009A0000101094AD16100BF00BF40F20111884234
:1009B00006D10549C96921F00101034AD16101E06D
:1009C0000149C86000BF704700200240200000209D
:1009D00070B5044600F006F9054609E0601C38B120
:1009E00024B100F0FFF8401BA04201D9032070BDE4
:1009F0001248C06800F001000028EFD10F48C0681D
:100A000000F0200020B100BF20200C49C86000BFCA
:100A10000A48C06800F0100048B90848C06900F0F2
:100A2000010020B90548C06800F0040018B1FFF7C4
:100A30008DFF0120DBE70020D9E700000020024005
:100A40002DE9F04104460E460127002500BF264847
:100A5000007E012802D10220BDE8F0810120224958
:100A6000087600BF2068022813D14CF25030FFF7FF
:100A7000AFFF90BB0120FFF731FF4CF25030FFF782
:100A8000A7FF07461948006920F0040017490861CC
:100A900023E04CF25030FFF79BFFF0B94FF0FF30EE
:100AA0003060A56812E02846FFF72CFF4CF250306A
:100AB000FFF78EFF07460D48006920F002000B4942
:100AC00008610FB1356007E005F50065D4E9021053
:100AD00001EBC020A842E6D800BF00BF00200249B9
:100AE000087600BF3846B7E720000020002002400B
:100AF0000348006940F08000014908610020704708
:100B0000002002402DE9FE4F05468B4617469846C9
:100B1000012600240020029000BF2448007E012806
:100B200002D10220BDE8FE8F01202049087600BFD7
:100B30004CF25030FFF74CFF064686BB012D02D128
:100B40000120029006E0022D02D10220029001E075
:100B50000420029000241EE02201B946C246484605
:100B60005146FFF703FB80B20190022000FB04B066
:100B700000900199FFF7DAFE4CF25030FFF728FFA2
:100B800006460B48006920F001000949086106B1DA
:100B900004E0601CC4B202988442DDDB00BF00BFE9
:100BA00000200249087600BF3046BBE72000002045
:100BB0000020024000200849096901F0800151B17C
:100BC0000649054A5160064951601146096901F01C
:100BD000800101B1012070470020024023016745D8
:100BE000AB89EFCD01480068704700000C00002081
:100BF00010B50848006840F010000649086003205E
:100C000000F0C2F8002000F007F800F02BF80020F8
:100C100010BD00000020024070B504460E48007868
:100C20004FF47A71B1FBF0F00C490968B1FBF0F5B3
:100C3000284600F013FC08B1012070BD102C07D22B
:100C400000222146501E00F061F80548046001E0D2
:100C50000120F2E70020F0E7140000201800002037
:100C60001000002008B500BF2648806940F0010050
:100C7000244988610846806900F00100009000BFA7
:100C800000BF00BF0846C06940F08050C8610846F8
:100C9000C06900F08050009000BF00BF032000F04A
:100CA00073F8002211466FF00B0000F02FF80022BD
:100CB00011466FF00A0000F029F8002211466FF08B
:100CC000090000F023F800221146501F00F01EF822
:100CD00000221146101F00F019F800221146901E44
:100CE00000F014F800221146501E00F00FF800BF6B
:100CF0000549486820F0E06040F00070486000BF9F
:100D000008BD000000100240000001402DE9F05F26
:100D100080460D461646002700F0D2FB07463946AE
:100D20002A46334601F00700C0F1070ABAF1040F62
:100D300002D94FF0040A01E0C0F1070AD14600F1E0
:100D4000040ABAF1070F02D24FF0000A01E0A0F145
:100D5000030AD4464FF0010A0AFA09FAAAF1010A75
:100D60000AEA020A0AFA0CFA4FF0010B0BFA0CFB22
:100D7000ABF1010B0BEA030B4AEA0B042146404698
:100D800000F0A6FBBDE8F09F00BF00F00702064B95
:100D900019684FF6FF031940044B0B4343EA022145
:100DA000014B196000BF70470CED00E00000FA0530
:100DB00070B504460D4600266248006800F0070042
:100DC000A8420ED25F48006820F0070028435D4922
:100DD00008600846006800F00700A84201D0012022
:100DE00070BD207800F00200022807D15648406804
:100DF00020F0F000A168084353494860207800F0D3
:100E0000010000285DD06068012806D14E480068C6
:100E100000F4003090B90120E2E76068022806D1B2
:100E20004948006800F0007040B90120D8E7464802
:100E3000006800F0020008B90120D1E7424840688C
:100E400020F00300616808433F494860FFF7CAFE8D
:100E500006466068012810D108E0FFF7C3FE801B3A
:100E600041F28831884201D90320B9E73648406809
:100E700000F00C000428F0D123E06068022810D1B3
:100E800008E0FFF7AFFE801B41F28831884201D9AC
:100E90000320A5E72C48406800F00C000828F0D19A
:100EA0000FE008E0FFF79EFE801B41F28831884288
:100EB00001D9032094E72448406800F00C00002882
:100EC000F0D12048006800F00700A8420ED91D4864
:100ED000006820F0070028431A49086008460068A7
:100EE00000F00700A84201D0012079E7207800F047
:100EF0000400042807D11448406820F4E060E16849
:100F0000084311494860207800F00800082808D1FB
:100F10000D48406820F46050216940EAC1000A4948
:100F2000486000F01DF808494968C1F30311074AF9
:100F3000515CC840064908600020FFF76DFE0020A4
:100F40004EE7000000200240001002408C1800080C
:100F500018000020014800687047000018000020B9
:100F6000F0B585B00FF26C0C9CE8E01001A8A0E889
:100F7000E0101CA52D68009500210022002300240C
:100F80000020194D696801F00C05F5B1042D02D05F
:100F9000082D19D101E0154819E001ADC1F38346D0
:100FA000AC5D01F4803555B10F4D6D68C5F340451A
:100FB0001DF805200D4D6543B5FBF2F302E00C4D25
:100FC00004FB05F3184602E000BF084800BF00BF5D
:100FD00005B0F0BD02030405060708090A0B0C0D55
:100FE0000E0F1010010200000010024000127A00E3
:100FF00000093D00F8B504460025207800F0010006
:10100000002878D0F848406800F00C0004280CD084
:10101000F548406800F00C00082811D1F2484068FB
:1010200000F48030B0F5803F0AD1EF48006800F44A
:10103000003000285FD0606800285CD10120F8BD36
:1010400000BF6068B0F5803F06D1E748006840F413
:101050008030E549086028E0606858B9E2480068D7
:1010600020F48030E04908600846006820F48020C1
:1010700008601AE06068B0F5A02F0BD1DA4800686C
:1010800040F48020D84908600846006840F4803069
:1010900008600AE0D448006820F48030D249086033
:1010A0000846006820F48020086000BF606888B1AE
:1010B000FFF798FD054606E0FFF794FD401B642806
:1010C00001D90320BBE7C848006800F400300028BD
:1010D000F2D010E0FFF786FD054606E0FFF782FD3F
:1010E000401B642801D90320A9E7BF48006800F429
:1010F00000300028F2D1207800F00200022857D1F9
:10110000B948406800F00C0050B1B748406800F0A2
:101110000C00082818D1B448406800F4803098B911
:10112000B148006800F0020020B12069012801D018
:10113000012084E7AC48006820F0F800616940EACB
:10114000C100A949086033E02069E8B10120A7493E
:101150000860FFF747FD054606E0FFF743FD401B2B
:10116000022801D903206AE79F48006800F00200C6
:101170000028F2D09C48006820F0F800616940EA3D
:10118000C1009949086013E0002098490860FFF702
:1011900029FD054606E0FFF725FD401B022801D981
:1011A00003204CE79048006800F002000028F2D1CC
:1011B000207800F0080008282DD1A069B8B10120DE
:1011C0008B490860FFF70EFD054606E0FFF70AFDB4
:1011D000401B022801D9032031E78348406A00F010
:1011E00002000028F2D0012000F088F913E000206E
:1011F0007F490860FFF7F6FC054606E0FFF7F2FCC2
:10120000401B022801D9032019E77748406A00F003
:1012100002000028F2D1207800F00400042873D1E5
:1012200000267148C06900F0805070B900BF6E4858
:10123000C06940F080506C49C8610846C06900F040
:101240008050009000BF00BF01266A48006800F48B
:101250008070B0B96748006840F4807065490860E4
:10126000FFF7C0FC054606E0FFF7BCFC401B642806
:1012700001D90320E3E65F48006800F4807000288D
:10128000F2D000BFE068012806D15748006A40F05C
:1012900001005549086227E0E06858B95248006AE1
:1012A00020F00100504908620846006A20F004005E
:1012B000086219E0E06805280BD14B48006A40F04D
:1012C0000400494908620846006A40F001000862CB
:1012D0000AE04548006A20F00100434908620846D8
:1012E000006A20F00400086200BFE068A0B1FFF7C8
:1012F00079FC054609E0FFF775FC401B41F2883197
:10130000884202D903209AE622E03748006A00F0BA
:1013100002000028EFD012E0FFF764FC054608E069
:10132000FFF760FC401B41F28831884201D903205D
:1013300085E62D48006A00F002000028F0D1012E59
:1013400005D12948C06920F080502749C86100BFF5
:10135000E069C8B32448406800F00C00082860D059
:10136000E069022848D1002020490866FFF73AFCCE
:10137000054606E0FFF736FC401B022801D9032092
:101380005DE61948006800F000700028F2D1206A7C
:10139000B0F5803F07D11448406820F40030A168C0
:1013A000084311494860D4E9080108430E494968D7
:1013B00021F4741108430C49486001200B49086668
:1013C000FFF710FC054607E02DE0FFF70BFC401B84
:1013D000022801D9032032E60348006800F00070BB
:1013E0000028F2D01FE0000000100240000042423E
:1013F000800442420070004000200C490866FFF75C
:10140000F1FB054606E0FFF7EDFB401B022801D982
:10141000032014E60648006800F000700028F2D1AE
:1014200001E001200BE6002009E600000000424236
:1014300000100240042808D14FF0E021096941F072
:1014400004014FF0E022116107E04FF0E02109694B
:1014500021F004014FF0E0221161704770B504469D
:101460002546681EB0F1807F01D301200FE0681E81
:101470004FF0E02148610F214FF0FF3000F028F8D5
:1014800000204FF0E021886107200861002070BD36
:1014900000BFFEE708B500BF0648806940F00400C1
:1014A000044988610846806900F00400009000BF8C
:1014B00000BF08BD0010024000BFFEE770470000FB
:1014C00002480068C0F30220704700000CED00E005
:1014D00010B5002807DA0A07140E054A00F00F03BA
:1014E0001B1FD45403E00A07130E024A135410BD05
:1014F00018ED00E000E400E07047000008B508497E
:101500000968C9084FF47A72B1FBF2F141430091C6
:1015100000BF00BF00994A1E00920029F9D108BD02
:10152000180000207047704710B590B00220069058
:1015300001200A9010200B9002200D9000210E91A6
:101540004FF460110F9106A8FFF754FD18B18A21DE
:1015500014A000F05DF80F200190022002900020FE
:1015600003904FF48060049000200590022101A8B0
:10157000FFF71EFC18B198210AA000F049F8FFF708
:10158000E9FC4FF47A71B0FBF1F42046FFF766FFF7
:101590000420FFF74FFF00221146501EFFF7B6FB55
:1015A00010B010BD2E2E2F5372632F6D61696E2EF9
:1015B000630000001148006840F001000F49086016
:1015C000084640680E4908400C49486008460068D3
:1015D0000C490840094908600846006820F480204A
:1015E00008600846406820F4FE0048604FF41F0081
:1015F0008860C8030449086070470000001002407A
:101600000000FFF8FFFFF6FE08ED00E000BFFEE778
:1016100000BFFEE7014A024900F013B86516000852
:101620001C00002002E008C8121F08C1002AFAD1DD
:1016300070477047002001E001C1121F002AFBD152
:1016400070472DE9F04116460F460446002503E099
:101650003946B047641C6D1C20780028F8D1284614
:10166000BDE8F08138B504468DF8000069460320D6
:10167000ABBE204638BD00BFFFF7BAFAFFF754FFF4
:10168000FFF708FFFEF714FE00BFFEE70000C1C031
:1016900081C1400101C3C003800241C201C6C0062E
:1016A000800741C70005C1C581C4400401CCC00CFE
:1016B000800D41CD000FC1CF81CE400E000AC1CABE
:1016C00081CB400B01C9C009800841C801D8C018AE
:1016D000801941D9001BC1DB81DA401A001EC1DE2E
:1016E00081DF401F01DDC01D801C41DC0014C1D41E
:1016F00081D5401501D7C017801641D601D2C0123E
:10170000801341D30011C1D181D0401001F0C0300D
:10171000803141F10033C1F381F240320036C1F62D
:1017200081F7403701F5C035803441F4003CC1FCFD
:1017300081FD403D01FFC03F803E41FE01FAC03ABD
:10174000803B41FB0039C1F981F840380028C1E8ED
:1017500081E9402901EBC02B802A41EA01EEC02E2D
:10176000802F41EF002DC1ED81EC402C01E4C0241D
:10177000802541E50027C1E781E640260022C1E23D
:1017800081E3402301E1C021802041E001A0C0604D
:10179000806141A10063C1A381A240620066C1A62D
:1017A00081A7406701A5C065806441A4006CC1ACFD
:1017B00081AD406D01AFC06F806E41AE01AAC06ABD
:1017C000806B41AB0069C1A981A840680078C1B8AD
:1017D00081B9407901BBC07B807A41BA01BEC07E2D
:1017E000807F41BF007DC1BD81BC407C01B4C0741D
:1017F000807541B50077C1B781B640760072C1B23D
:1018000081B3407301B1C071807041B00050C1908C
:10181000819140510193C053805241920196C0562C
:10182000805741970055C19581944054019CC05CFC
:10183000805D419D005FC19F819E405E005AC19ABC
:10184000819B405B0199C059805841980188C048EC
:1018500080494189004BC18B818A404A004EC18E2C
:10186000818F404F018DC04D804C418C0044C1841C
:10187000818540450187C047804641860182C0423C
:10188000804341830041C1818180404000000000CD
:101890000000000001020304060708090000000020
:1018A00001020304C418000800000020200000000A
:1018B00024160008E418000820000020200400007E
:1018C0003416000820480008000000000000000056
:1018D00000000000100000000100000000A24A0407
:0418E0000000000004
:0400000508000135B9
:00000001FF
